:020000040000FA
:100000000C9463000C948B000C948B000C941F03D5
:100010000C941F030C941F030C948B000C948B0006
:100020000C948B000C948B000C948B000C948B0024
:100030000C948B000C948B000C948B000C948B0014
:100040000C94D5020C948B000C94A3020C947D02AA
:100050000C948B000C948B000C948B000C948B00F4
:100060000C948B000C948B0000000008000201002F
:100070000003040700000000000000000000000072
:1000800023002600290000000000240027002A0089
:1000900000000000250028002B00040404040404D0
:1000A0000404020202020202030303030303010227
:1000B00004081020408001020408102001020408F6
:1000C0001020E3039F0611241FBECFEFD8E0DEBF50
:1000D000CDBF22E0AAE3B1E001C01D92AC35B2076A
:1000E000E1F711E0A0E0B1E0E0E3FEE002C005903E
:1000F0000D92AA33B107D9F710E0C2E6D0E004C0F0
:100100002197FE010E940507C136D107C9F70E9459
:10011000CC040C940B070C940000AF92BF92CF92CA
:10012000DF92EF92FF920F931F93CF93DF936C01B7
:100130007B018B01040F151FEB015E01AE18BF0898
:10014000C017D10759F06991D601ED91FC9101904A
:10015000F081E02DC6010995892B79F7C501DF9162
:10016000CF911F910F91FF90EF90DF90CF90BF90B4
:10017000AF900895FC01538D448D252F30E0842FDE
:1001800090E0821B930B541710F0CF9608950197BF
:100190000895FC01918D828D981761F0A28DAE0FAC
:1001A000BF2FB11D5D968C91928D9F5F9F73928F33
:1001B00090E008958FEF9FEF0895FC01918D828D5F
:1001C000981731F0828DE80FF11D858D90E008952C
:1001D0008FEF9FEF0895FC01918D228D892F90E084
:1001E000805C9F4F821B91098F739927089580EA45
:1001F00091E00E94EB0021E0892B09F420E0822F9E
:10020000089580E090E0892B29F00E94F700811189
:100210000C9400000895FC01A48DA80FB92FB11D06
:10022000A35ABF4F2C91848D90E001968F7399272C
:10023000848FA689B7892C93A089B1898C9183700A
:1002400080648C93938D848D981306C00288F38903
:10025000E02D80818F7D80830895EF92FF920F9330
:100260001F93CF93DF93EC0181E0888F9B8D8C8D62
:1002700098131AC0E889F989808185FF15C09FB756
:10028000F894EE89FF896083E889F9898081837019
:10029000806480839FBF81E090E0DF91CF911F91C8
:1002A0000F91FF90EF900895F62E0B8D10E00F5FE9
:1002B0001F4F0F731127E02E8C8D8E110CC00FB6BF
:1002C00007FCFACFE889F989808185FFF5CFCE0157
:1002D0000E940B01F1CFEB8DEC0FFD2FF11DE35AC6
:1002E000FF4FF0829FB7F8940B8FEA89FB898081DA
:1002F0008062CFCFCF93DF93EC01888D8823B9F054
:10030000AA89BB89E889F9898C9185FD03C0808120
:1003100086FD0DC00FB607FCF7CF8C9185FFF2CF9D
:10032000808185FFEDCFCE010E940B01E9CFDF91E7
:10033000CF9108953FB7F89480917B0190917C0113
:10034000A0917D01B0917E0126B5A89B05C02F3FED
:1003500019F00196A11DB11D3FBFBA2FA92F982FEB
:100360008827BC01CD01620F711D811D911D42E0E6
:10037000660F771F881F991F4A95D1F7089520911E
:100380008101309182012817390771F490917F0122
:1003900080918001981741F0E0917F01F0E0E65CE8
:1003A000FE4F808190E008958FEF9FEF08950895AC
:1003B000EF92FF920F931F93CF93DF93DC015C9634
:1003C000ED90FC905D97E114F10479F481E090E008
:1003D00013969C938E93129790E080E0DF91CF91DB
:1003E0001F910F91FF90EF9008955196ED91FC9120
:1003F000529750968C915097982F90950FB75E9684
:100400002C915E97122F127021FD6095F894208137
:10041000112319F1282B2083E7012197F1F728E018
:10042000462F50E0308160FF1AC0382B3083E7013F
:100430002197F1F7BA0175956795215089F7112336
:1004400081F08081892380830FBF5C968D919C9180
:100450000197F1F781E090E0C1CF2923DCCF392368
:10046000E5CF9081892BEFCF2091810130918201DE
:100470002817390771F48091800120917F0190E065
:10048000805C9F4F821B910960E470E00E94BB0674
:10049000089590E080E008952091810130918201DB
:1004A00028173907B9F490917F018091800198173E
:1004B00089F0E0917F01F0E0E65CFE4F80812091C1
:1004C0007F0130E02F5F3F4F2F73332720937F0151
:1004D00090E008958FEF9FEF089590E080E00895F9
:1004E000FC0101900020E9F73197AF01481B590B3F
:1004F000BC0180EA91E00C948D001F920F920FB620
:100500000F9211242F933F934F935F936F937F9399
:100510008F939F93AF93BF93EF93FF9380EA91E004
:100520000E940B01FF91EF91BF91AF919F918F912D
:100530007F916F915F914F913F912F910F900FBEDF
:100540000F901F9018951F920F920FB60F921124C3
:100550002F938F939F93EF93FF93E091B001F091CE
:10056000B1018081E091B601F091B70182FD1BC01D
:1005700090818091B9018F5F8F732091BA018217AA
:1005800041F0E091B901F0E0E056FE4F958F809385
:10059000B901FF91EF919F918F912F910F900FBE15
:1005A0000F901F9018958081F4CF1F920F920FB675
:1005B0000F9211242F933F938F939F93AF93BF93E9
:1005C0008091830190918401A0918501B091860171
:1005D00030917A0123E0230F2D3758F50196A11DA4
:1005E000B11D20937A018093830190938401A0939D
:1005F0008501B093860180917B0190917C01A0914F
:100600007D01B0917E010196A11DB11D80937B01FA
:1006100090937C01A0937D01B0937E01BF91AF9137
:100620009F918F913F912F910F900FBE0F901F9030
:10063000189526E8230F0296A11DB11DD2CF1F9257
:100640000F920FB60F9211242F933F934F935F9306
:100650006F937F938F939F93AF93BF93EF93FF938A
:10066000E0918101F0918201309749F0A685B7852C
:100670008585968D91FF14C09C918923A1F4FF91EB
:10068000EF91BF91AF919F918F917F916F915F910A
:100690004F913F912F910F900FBE0F901F90189583
:1006A0009C91892361F7A389B4899C918589809560
:1006B00089238C93868997890197F1F7608D718DD5
:1006C000A685B785558538E020E0CB010197F1F785
:1006D000822F90E095958795282F4C91452309F01E
:1006E0002068315091F7868D81FD209580918001A1
:1006F00090E001968F73992730917F01381799F018
:10070000A0918001B0E0A65CBE4F2C938093800145
:10071000828D938D0197F1F7A389B4898C91958986
:10072000892B8C93ACCF868D8160868FF1CF90E042
:10073000FC01E859FF4F2491FC01E255FF4F349131
:10074000FC01E656FF4FE491EE23C9F0222339F075
:10075000233001F1A8F4213019F1223029F1F0E021
:10076000EE0FFF1FE057FF4FA591B4918FB7F8949C
:10077000EC91611126C030953E233C938FBF0895C4
:100780002730A9F02830C9F0243049F78091800043
:100790008F7D03C0809180008F7780938000DFCFB2
:1007A00084B58F7784BDDBCF84B58F7DFBCF8091FF
:1007B000B0008F778093B000D2CF8091B0008F7D52
:1007C000F9CF3E2BDACF0F931F93CF93DF93109285
:1007D000A3011092A20188EE93E0A0E0B0E0809324
:1007E000A4019093A501A093A601B093A70127E0CF
:1007F00031E03093A1012093A00125EC30E030934B
:10080000AD012093AC0124EC30E03093AF01209394
:10081000AE0120EC30E03093B1012093B00121EC27
:1008200030E03093B3012093B20122EC30E03093FA
:10083000B5012093B40126EC30E03093B70120934A
:10084000B6011092B9011092BA011092BB01109238
:10085000BC011092400210923F028093410290939B
:100860004202A0934302B093440289E191E0909345
:100870003E0280933D021092540210925302109255
:10088000560210925502109258021092570210927E
:100890005A021092590260915B026E7F6D7F6093E5
:1008A0005B026695617081E068278AE00E94970389
:1008B00048EB50E0FA01649184EA90E0FC01249155
:1008C000222399F030E0220F331FF901EA57FF4F3E
:1008D000A591B491F901E057FF4F259134912FB7BD
:1008E000F8943C91632B6C932FBFFA014491409391
:1008F0004D02FC018491E82FF0E0EE0FFF1FE0575E
:10090000FF4F8591949190934F0280934E0207EB95
:1009100010E0F8012491C3EAD0E0FE01849188231D
:10092000C9F090E0880F991FFC01EA57FF4FA5918D
:10093000B491FC01E057FF4F459154913FB7F894B3
:100940009C91822F809598239C93FA019081892312
:1009500080833FBF80915B0281FD04C061E089E03C
:100960000E94970389E080934902F8010491009363
:100970004A02FE01C491EC2FF0E0EE0FFF1FE45895
:10098000FF4F8591949190934C0280934B02DF919D
:10099000CF911F910F910895CF93DF93CDB7DEB71D
:1009A000A1970FB6F894DEBF0FBECDBF789484B583
:1009B000826084BD84B5816084BD85B5826085BD5B
:1009C00085B5816085BD80916E00816080936E00E9
:1009D00010928100809181008260809381008091DB
:1009E000810081608093810080918000816080938C
:1009F00080008091B10084608093B1008091B0004C
:100A000081608093B00080917A00846080937A0046
:100A100080917A00826080937A0080917A00816070
:100A200080937A0080917A00806880937A00109297
:100A3000C100E091B001F091B10182E08083E091CA
:100A4000AC01F091AD011082E091AE01F091AF01E7
:100A50008FEC80831092B801E091B401F091B50160
:100A600086E08083E091B201F091B30180818061E2
:100A70008083E091B201F091B3018081886080832E
:100A8000E091B201F091B301808180688083E091B0
:100A9000B201F091B30180818F7D80831092580262
:100AA0001092570210925602109255021092540260
:100AB000109253028DE991E090935A02809359026B
:100AC00090914902963108F047C02DEB30E0309309
:100AD0005402209353022BE931E0309356022093C5
:100AE00055022CE231E030935802209357022091B6
:100AF000680084E0983048F031E09E3008F430E03F
:100B000081E001C0880F3A95EAF7822B8093680054
:100B10002DE630E0983050F02BE630E09E3030F09B
:100B20002CE630E0963110F030E020E030935102B6
:100B300020935002292F30E0983008F0EAC081E07D
:100B400001C0880F9A95EAF780935202809159026A
:100B500090915A020197F1F78091570290915802B3
:100B6000892B49F1E0918101F091820122E0ED337E
:100B7000F20709F1309739F0A389B4899C918589EE
:100B8000809589238C9380915B028E7F80935B029A
:100B90001092800110927F018DE392E09093820188
:100BA00080938101E0915002F091510280819091F7
:100BB0005202892B80832FE8222E21E0322E3AE048
:100BC000832E912CA12CB12C43E050E060E071E029
:100BD0008DE392E00E948D0097E8E92E91E0F92ED6
:100BE00087012FB7F8948091830190918401A0919F
:100BF0008501B09186012FBF8093450290934602F4
:100C0000A0934702B09348028DE392E00E944C0209
:100C100097FF8CC02FB7F894809183019091840145
:100C2000A0918501B09186012FBF4091450250915E
:100C300046026091470270914802841B950BA60BF7
:100C4000B70B409141025091420260914302709172
:100C5000440284179507A607B707B0F287E291E030
:100C60000E94700287E391E00E947002F7012191D7
:100C70007F0130E050E040E019A28E010F5D1F4F70
:100C8000CA01B901A50194010E94CF06605DF80177
:100C900062938F01211531054105510589F7309780
:100CA00019F0CF010E9470022E143F04F9F60E9441
:100CB0009A012B013C0188EEC82E83E0D82EE12C4E
:100CC000F12C0E949A016419750986099709683EFA
:100CD000734081059105A8F3F1E0CF1AD108E1082E
:100CE000F10828EE420E23E0521E611C711CC11453
:100CF000D104E104F10429F780E090E0892B09F4A4
:100D000063CF0E94F700882309F45ECF0E940000A1
:100D10005BCF9E3040F42850310981E001C0880F3C
:100D20002A95EAF711CF2E503109F7CFF8018193B8
:100D30008F01F1E00E381F0709F053CF8FCF89E103
:100D400091E090933E0280933D02809181019091C9
:100D500082018D53924071F4E0915002F091510262
:100D60009081809152028095892380831092820124
:100D700010928101089597FB072E16F4009407D076
:100D800077FD09D00E94F10607FC05D03EF490954E
:100D900081959F4F0895709561957F4F0895A1E2C9
:100DA0001A2EAA1BBB1BFD010DC0AA1FBB1FEE1FE5
:100DB000FF1FA217B307E407F50720F0A21BB30B30
:100DC000E40BF50B661F771F881F991F1A9469F7AC
:100DD00060957095809590959B01AC01BD01CF0108
:100DE0000895AA1BBB1B51E107C0AA1FBB1FA61772
:100DF000B70710F0A61BB70B881F991F5A95A9F7C4
:100E000080959095BC01CD010895EE0FFF1F0590D0
:100E1000F491E02D099410E0C2E6D0E004C0FE0198
:100E20000E9405072196C336D107C9F7F894FFCF72
:100E3000C10002000000002D018D00BA007A01EB14
:100E400000C900DD0000000000D8018D006D02D750
:100E50000134024C02BF0162756666657220636FE1
:0A0E60006E74656E7473000D0A00D5
:107E0000112484B714BE81FFF0D085E080938100F7
:107E100082E08093C00088E18093C10086E0809377
:107E2000C20080E18093C4008EE0C9D0259A86E02C
:107E300020E33CEF91E0309385002093840096BBD3
:107E4000B09BFECF1D9AA8958150A9F7CC24DD24C4
:107E500088248394B5E0AB2EA1E19A2EF3E0BF2EE7
:107E6000A2D0813461F49FD0082FAFD0023811F036
:107E7000013811F484E001C083E08DD089C08234E0
:107E800011F484E103C0853419F485E0A6D080C0E4
:107E9000853579F488D0E82EFF2485D0082F10E0AE
:107EA000102F00270E291F29000F111F8ED06801E7
:107EB0006FC0863521F484E090D080E0DECF843638
:107EC00009F040C070D06FD0082F6DD080E0C81688
:107ED00080E7D80618F4F601B7BEE895C0E0D1E017
:107EE00062D089930C17E1F7F0E0CF16F0E7DF06D8
:107EF00018F0F601B7BEE89568D007B600FCFDCFD4
:107F0000A601A0E0B1E02C9130E011968C91119780
:107F100090E0982F8827822B932B1296FA010C0160
:107F200087BEE89511244E5F5F4FF1E0A038BF0790
:107F300051F7F601A7BEE89507B600FCFDCF97BE46
:107F4000E89526C08437B1F42ED02DD0F82E2BD052
:107F50003CD0F601EF2C8F010F5F1F4F84911BD097
:107F6000EA94F801C1F70894C11CD11CFA94CF0C13
:107F7000D11C0EC0853739F428D08EE10CD085E9AC
:107F80000AD08FE07ACF813511F488E018D01DD067
:107F900080E101D065CF982F8091C00085FFFCCF94
:107FA0009093C60008958091C00087FFFCCF809118
:107FB000C00084FD01C0A8958091C6000895E0E648
:107FC000F0E098E1908380830895EDDF803219F02E
:107FD00088E0F5DFFFCF84E1DECF1F93182FE3DFCA
:107FE0001150E9F7F2DF1F91089580E0E8DFEE27F6
:047FF000FF270994CA
:027FFE00040479
:00000001FF
